:100000000C9463000C948B000C948B000C948B006C
:100010000C948B000C948B000C948B000C948B0034
:100020000C948B000C948B000C948B000C948B0024
:100030000C948B000C948B000C948B000C948B0014
:100040000C94A3060C948B000C9413070C94ED06EF
:100050000C948B000C948B000C948B000C948B00F4
:100060000C9445070C948B0000000000240027002E
:100070002A0000000000250028002B0000000000DE
:1000800023002600290004040404040404040202DA
:100090000202020203030303030301020408102007
:1000A0004080010204081020010204081020000012
:1000B0000008000201000003040700000000000027
:1000C000000064081F0C11241FBECFEFD8E0DEBF74
:1000D000CDBF11E0A0E0B1E0EAE6F0E202C0059099
:1000E0000D92A638B107D9F723E0A6E8B1E001C028
:1000F0001D92AA31B207E1F710E0C2E6D0E004C0D9
:100100002197FE010E94F40EC136D107C9F70E9463
:1001100003090C9428100C940000209110033091D6
:1001200011038217930758F4880F991FE0910A036F
:10013000F0910B03E80FF91F80819181089580E011
:1001400090E00895209110033091110382179307D6
:1001500060F4880F991FE0910A03F0910B03E80FF8
:10016000F91F6083718381E0089580E008958330F2
:1001700081F028F4813099F08230A9F00895873019
:10018000A9F08830C9F08430B1F4809180008F7D6F
:1001900003C0809180008F7780938000089584B59C
:1001A0008F7784BD089584B58F7DFBCF8091B0009B
:1001B0008F778093B00008958091B0008F7DF9CF44
:1001C000CF93DF93282F30E0F901E255FF4F849160
:1001D000F901E656FF4FD491F901EA57FF4FC49158
:1001E000CC23A1F081110E94B700EC2FF0E0EE0FBC
:1001F000FF1FE458FF4FA591B491EC91ED2381E0EE
:1002000090E009F480E0DF91CF91089580E090E0E4
:10021000FACF1F93CF93DF93282F30E0F901E255F7
:10022000FF4F8491F901E656FF4FD491F901EA5747
:10023000FF4FC491CC23A9F0162F81110E94B70063
:10024000EC2FF0E0EE0FFF1FEE58FF4FA591B49199
:100250008FB7F894EC91111108C0D095DE23DC9390
:100260008FBFDF91CF911F910895DE2BF8CFCF93F1
:10027000DF9390E0FC01E656FF4F24918A579F4F91
:10028000FC0184918823D1F090E0880F991FFC0134
:10029000E859FF4FA591B491FC01EE58FF4FC5916D
:1002A000D49161110EC09FB7F8948C91E22FE09524
:1002B0008E238C932881E223E8839FBFDF91CF9127
:1002C00008958FB7F894EC91E22BEC938FBFF6CFA3
:1002D0003FB7F89480914D0290914E02A0914F0249
:1002E000B091500226B5A89B05C02F3F19F001968A
:1002F000A11DB11D3FBFBA2FA92F982F8827BC0180
:10030000CD01620F711D811D911D42E0660F771FA7
:10031000881F991F4A95D1F708958F929F92AF92A7
:10032000BF92CF92DF92EF92FF924B015C010E944D
:1003300068016B017C010E9468016C197D098E09BE
:100340009F09683E734081059105A8F321E0821A58
:100350009108A108B10888EEC80E83E0D81EE11C00
:10036000F11C81149104A104B10429F7FF90EF90CE
:10037000DF90CF90BF90AF909F908F900895089599
:100380000895AF92BF92CF92DF92EF92FF920F93B8
:100390001F93CF93DF936C017B018B01040F151F1B
:1003A000EB015E01AE18BF08C017D10759F0699183
:1003B000D601ED91FC910190F081E02DC6010995E7
:1003C000892B79F7C501DF91CF911F910F91FF9094
:1003D000EF90DF90CF90BF90AF900895FC01538DC8
:1003E000448D252F30E0842F90E0821B930B54170F
:1003F00010F0CF96089501970895FC01918D828D9C
:10040000981761F0A28DAE0FBF2FB11D5D968C9134
:10041000928D9F5F9F73928F90E008958FEF9FEF73
:100420000895FC01918D828D981731F0828DE80F2F
:10043000F11D858D90E008958FEF9FEF0895FC01E9
:10044000918D228D892F90E0805C9F4F821B9109B6
:100450008F739927089581E592E00E941F0221E0A1
:10046000892B09F420E0822F089580E090E0892B09
:1004700029F00E942B0281110C9400000895FC01C8
:10048000A48DA80FB92FB11DA35ABF4F2C91848DF5
:1004900090E001968F739927848FA689B7892C9352
:1004A000A089B1898C91837080648C93938D848DA5
:1004B000981306C00288F389E02D80818F7D8083A8
:1004C0000895EF92FF920F931F93CF93DF93EC0168
:1004D00081E0888F9B8D8C8D98131AC0E889F989EB
:1004E000808185FF15C09FB7F894EE89FF896083EE
:1004F000E889F98980818370806480839FBF81E06F
:1005000090E0DF91CF911F910F91FF90EF900895B0
:10051000F62E0B8D10E00F5F1F4F0F731127E02E8B
:100520008C8D8E110CC00FB607FCFACFE889F989C3
:10053000808185FFF5CFCE010E943F02F1CFEB8D88
:10054000EC0FFD2FF11DE35AFF4FF0829FB7F89497
:100550000B8FEA89FB8980818062CFCFCF93DF93B5
:10056000EC01888D8823B9F0AA89BB89E889F989CB
:100570008C9185FD03C0808186FD0DC00FB607FC00
:10058000F7CF8C9185FFF2CF808185FFEDCFCE0133
:100590000E943F02E9CFDF91CF9108952091EE01B3
:1005A000260F3327331F21323105ECF4209112023C
:1005B000FC0190E080E0243069F082E00895A09191
:1005C000EE012191AC0142535E4FA40FB52FB11D36
:1005D0002C930196861798F38091EE01680F609333
:1005E000EE0180E0089581E008951092120281E00A
:1005F000809314021092130261E082E10E940901CB
:1006000061E083E10E940901E9EBF0E080818E7FE7
:10061000808380818D7F808388E48093B80085E427
:100620008093BC000895CF93DF9391E09093CD0128
:100630008823B9F0C091B800D091BA008091BC0075
:100640008A7B8093BC0060E082E10E94090160E047
:1006500083E10E9409010E94F502D093BA00C09381
:10066000B800DF91CF9108950895E0913F02809105
:100670003E02E81730F4F0E0E855FE4F808190E04C
:1006800008958FEF9FEF089590913F0280913E0271
:100690002FEF3FEF981748F4E92FF0E0E855FE4FB1
:1006A000208130E09F5F90933F02C90108958091BF
:1006B0003E0290913F02891B990B0895CF92DF92E1
:1006C000EF92FF920F931F93CF93DF937C01CB01A7
:1006D0008A012091A701222389F0EB016B01C40E4E
:1006E000D51ECC15DD0569F06991D701ED91FC911E
:1006F0000190F081E02DC7010995F3CF642F0E948E
:10070000CE02C801DF91CF911F910F91FF90EF9022
:10071000DF90CF900895CF93DF931F92CDB7DEB7D0
:1007200069832091A7012223F9F020913C02203215
:1007300058F021E030E0FC013383228390E080E038
:100740000F90DF91CF91089580913D02E82FF0E066
:10075000E957FE4F998190838F5F80933D0280938C
:100760003C0281E090E0ECCF61E0CE0101960E9476
:10077000CE02F7CFCF92DF92EF92FF920F931F93AB
:10078000CF93DF93FC01C48121E02093A701C093A4
:10079000860110923D0210923C028385682B8EEEFA
:1007A00092E00E948B03D0913C02D13208F092C0BB
:1007B0000E9468016B017C0180911202811165C069
:1007C00082E08093120281E0809314028FEF809385
:1007D000110210923602D0933502A7E8B1E0E5E1AC
:1007E000F2E080E0D81385C0109237028091370282
:1007F000CC0FC82BC093370280911302813009F0CF
:100800007CC0109213020E9468016B017C018091F0
:1008100037028093BB008091C9019091CA01A091D9
:10082000CB01B091CC01892B8A2B8B2B99F00E94A4
:1008300068010091C9011091CA012091CB0130914A
:10084000CC016C197D098E099F0906171707280727
:100850003907E0F18091BC0083FDD9CF85EC80930E
:10086000BC000E9468016B017C0180911202823001
:1008700009F445C0809111028F3F61F1809111020E
:10088000803241F18091110225C08091C90190917F
:10089000CA01A091CB01B091CC01892B8A2B8B2B63
:1008A00009F48ACF0E9468010091C9011091CA0120
:1008B0002091CB013091CC016C197D098E099F09E3
:1008C000061717072807390708F076CF8091C80167
:1008D0000E94130310923D0210923C021092A70155
:1008E000DF91CF911F910F91FF90EF90DF90CF900C
:1008F00008959D9191938F5F75CF85EEB0CF8091D4
:10090000C9019091CA01A091CB01B091CC01892B72
:100910008A2B8B2B09F4A9CF0E9468010091C90191
:100920001091CA012091CB013091CC016C197D0945
:100930008E099F09061717072807390708F095CF72
:10094000C5CF089590E080E008950F931F93CF9353
:100950008C01C62F0E94BA036C2F6460C8010E94EC
:10096000BA036C2F6B7FC8010E94BA0383EC90E03E
:100970000197F1F7CF911F910F9108950F931F9356
:10098000CF93DF938C01D62FC42F607F642B0E94FE
:10099000A50480E1D89FB00111246C2BC801DF9120
:1009A000CF911F910F910C94A504CF93DF93CDB7F6
:1009B000DEB728970FB6F894DEBF0FBECDBF28E094
:1009C000EAE0F1E0DE01119601900D922A95E1F73F
:1009D000FC012085241710F44FEF420F50E0440F24
:1009E000551F21E030E02C0F3D1F420F531FFA012D
:1009F0002081620F606840E028960FB6F894DEBF51
:100A00000FBECDBFDF91CF910C94BE0440E061E0FA
:100A10000E94BE048BE39FE10197F1F7089541E046
:100A20000E94BE0481E090E008958F929F92AF9261
:100A3000BF92CF92DF92EF92FF920F931F93CF93CB
:100A4000DF938C0180910C0390910D03C0911003F2
:100A5000D091110360910E0370910F03009789F4F8
:100A6000C617D70708F466C0DF91CF911F910F9189
:100A7000FF90EF90DF90CF90BF90AF909F908F90BE
:100A80000895019709F056C090E080E00E94D00DD3
:100A90006B017C01BE0190E080E00E94D00DA701B7
:100AA00096010E942F0D2DEC3CEC4CE45FE30E947C
:100AB0005E0E87FD3FC020E030E040EC5FE3C70101
:100AC000B6010E94630E0E94A10D4B01811480E4C7
:100AD000980688F4C401880F991F009779F00E9446
:100AE000FA0E6C01C401F601019797FD0AC010824D
:100AF00011823296F9CF8FEF9FEFF1CF81E090E036
:100B0000EECFE0900A03F0900B03AE01440F551FA7
:100B1000B701C6010E941F10E114F10419F0C701CA
:100B20000E94960FC0920A03D0920B0390920F037B
:100B300080920E03809110039091110320910E0377
:100B400030910F038217930708F08ECF20910A038C
:100B500030910B03AC014F5F5F4F509311034093F3
:100B60001003880F991F820F931FFC0111830083CC
:100B70007BCFFB0101900020E9F73197AF01461BC5
:100B8000570BDC01ED91FC910280F381E02D09947B
:100B900085ED8093BC008091C9019091CA01A0911C
:100BA000CB01B091CC010796A11DB11D23E0B695F4
:100BB000A795979587952A95D1F72091BC0024FD9C
:100BC00003C01092120208954091C9015091CA01C8
:100BD0006091CB017091CC01452B462B472B69F3DB
:100BE0000097A105B10541F02AE22A95F1F700C06E
:100BF0000197A109B109E1CF8091C8010C941303B9
:100C00008F929F92AF92BF92CF92DF92EF92FF921C
:100C1000CF930E94740C4B015C010E94740C6B0119
:100C20007C01C501B40124E130E040E050E00E94C5
:100C3000CC0CC62FC701B60124E030E040E050E004
:100C40000E94CC0C962F8C2FCF91FF90EF90DF90CD
:100C5000CF90BF90AF909F908F9008950E94000614
:100C600090934402809343022091430230914402C6
:100C70004091100350911103E0910A03F0910B038E
:100C800090E080E04817590749F06081261303C0BF
:100C90006181631719F301963296F4CF0895CF93CB
:100CA000DF9381E0809349022FB7F8948091060387
:100CB00090910703A0910803B09109032FBF80937F
:100CC000120390931303A0931403B093150383E0CE
:100CD00090E0909348028093470280910A0390919C
:100CE0000B03009711F00E94960FC0910E03D09154
:100CF0000F03C11580E4D80788F4CE01880F991F2F
:100D0000009711F481E090E00E94FA0EFC01219717
:100D1000D7FD07C0108211823296F9CF8FEF9FEF77
:100D2000F3CF80930A0390930B0310921103109258
:100D3000100389E091E00E94150510924202DF91B4
:100D4000CF910C942E061F920F920FB60F92112482
:100D50002F933F938F939F93AF93BF9380910603FD
:100D600090910703A0910803B091090330914C02C0
:100D700023E0230F2D3758F50196A11DB11D2093B7
:100D80004C028093060390930703A0930803B0934B
:100D9000090380914D0290914E02A0914F02B091B3
:100DA00050020196A11DB11D80934D0290934E02F9
:100DB000A0934F02B0935002BF91AF919F918F913A
:100DC0003F912F910F900FBE0F901F90189526E81E
:100DD000230F0296A11DB11DD2CF1F920F920FB605
:100DE0000F9211242F933F934F935F936F937F93B1
:100DF0008F939F93AF93BF93EF93FF9381E592E01F
:100E00000E943F02FF91EF91BF91AF919F918F910F
:100E10007F916F915F914F913F912F910F900FBEF6
:100E20000F901F9018951F920F920FB60F921124DA
:100E30002F938F939F93EF93FF93E0916102F09133
:100E400062028081E0916702F091680282FD1BC01E
:100E5000908180916A028F5F8F7320916B0282175D
:100E600041F0E0916A02F0E0EF5AFD4F958F8093D8
:100E70006A02FF91EF919F918F912F910F900FBE7A
:100E80000F901F9018958081F4CF1F920F920FB68C
:100E90000F9211242F933F934F935F936F937F9300
:100EA0008F939F93AF93BF93EF93FF938091B9007C
:100EB000887F803609F44AC0F0F5883209F4A7C06B
:100EC00018F5803109F49BC0B8F4882309F4F9C0FF
:100ED000883009F494C0FF91EF91BF91AF919F9139
:100EE0008F917F916F915F914F913F912F910F90D3
:100EF0000FBE0F901F901895883109F488C080327A
:100F000051F78093110214C0803409F49DC040F45D
:100F10008033B9F38833F9F68093110285ECB0C0C1
:100F2000803509F485C0883509F496C0883499F66F
:100F30000E94C805D0CF883909F48CC038F58837AD
:100F400029F050F4883611F0803729F683E0809339
:100F500012021092100257C0883809F47BC0803901
:100F600019F0803809F0B7CF80911002803208F074
:100F700071C0E091100281E08E0F80931002809189
:100F8000BB00F0E0E051FE4F80833DC0803B39F074
:100F9000E0F4803A09F479C0883A09F09CCF84E003
:100FA000809312021092EF011092EE01E0913A024A
:100FB000F0913B0209958091EE0181110FC081E013
:100FC0008093EE011092CE0109C0803C09F4A6CFB7
:100FD000883C09F4A3CF883B09F07DCFE091EF0175
:100FE00081E08E0F8093EF01F0E0E253FE4F8081AD
:100FF0008093BB009091EF018091EE0129C0809118
:1010000037028093BB0085EC8093BC0064CF909145
:10101000360280913502981758F5E091360281E04A
:101020008E0F80933602F0E0EB5EFD4F8081E9CFBA
:10103000E091360281E08E0F809336028091BB00F2
:10104000F0E0EB5EFD4F8083909136028091350297
:101050009817C8F285E8D8CFE091360281E08E0F6C
:10106000809336028091BB00F0E0EB5EFD4F808301
:101070008091140281115CCF81E08093130284EA95
:101080008093BC001092120226CF85EC8093BC00A6
:101090001092120280911002803230F4E09110021E
:1010A000F0E0E051FE4F10826091100270E0E0919C
:1010B0003802F091390280EF91E009951092100208
:1010C0000ACF1092110234CF1092540210925302A0
:1010D00088EE93E0A0E0B0E0809355029093560232
:1010E000A0935702B093580226E131E030935202A8
:1010F0002093510225EC30E030935E0220935D0294
:1011000024EC30E03093600220935F0220EC30E06A
:10111000309362022093610221EC30E0309364024C
:101120002093630222EC30E0309366022093650244
:1011300026EC30E0309368022093670210926A0236
:1011400010926B0210926C0210926D021092F102DA
:101150001092F0028093F2029093F302A093F402B3
:10116000B093F50288E291E09093EF028093EE0253
:101170001092FD021092FC028AE391E09093FB0230
:101180008093FA0287E28093FE0284E18093030356
:1011900084E080930403109205032FB7F8948091A4
:1011A000060390910703A0910803B09109032FBF94
:1011B0008093120390931303A0931403B093150329
:1011C00081E090E090930D0380930C0388E090E021
:1011D00090930F0380930E0310921103109210034B
:1011E00080E190E00E94FA0EFC019C01205F3F4FDD
:1011F0001082118232962E173F07D1F790930B037E
:1012000080930A030895CF93DF93CDB7DEB7A597F8
:101210000FB6F894DEBF0FBECDBF789484B5826060
:1012200084BD84B5816084BD85B5826085BD85B58A
:10123000816085BD80916E00816080936E00109208
:101240008100809181008260809381008091810083
:101250008160809381008091800081608093800014
:101260008091B10084608093B1008091B000816072
:101270008093B00080917A00846080937A0080919E
:101280007A00826080937A0080917A0081608093F6
:101290007A0080917A00806880937A001092C10071
:1012A000E0916102F091620282E08083E0915D0250
:1012B000F0915E021082E0915F02F09160028FEC8B
:1012C000808310926902E0916502F091660286E0E7
:1012D0008083E0916302F091640280818061808369
:1012E000E0916302F0916402808188608083E091E4
:1012F0006302F0916402808180688083E0916302E0
:10130000F091640280818F7D808362E471E081E5E9
:1013100092E00E94B9056BE571E081E592E00E94E0
:10132000B90580E480937C0080917A00806480938A
:101330007A0080917A0086FDFCCF609178007091F0
:101340007900072E000C880B990B6115710581053A
:10135000910511F00E94C30C60E08BE00E94370100
:1013600060E08CE00E94370110923F0210923E0232
:1013700010923D0210923C020E94F5028FEB91E028
:1013800090933B0280933A0280EC91E09093390273
:10139000809338021092FF0280910403823018F08B
:1013A00098E09093FF028093020362E370E080E094
:1013B00090E00E948D01609105038AEF92E00E9407
:1013C000BA0368EE73E080E090E00E948D0160E374
:1013D0008AEF92E00E94A5040BE416E4C80101978D
:1013E000F1F760E38AEF92E00E94A504C80101973B
:1013F000F1F760E38AEF92E00E94A50483E592E0B2
:101400000197F1F760E28AEF92E00E94A5046091F3
:10141000FF02606240E08AEF92E00E94BE0484E036
:101420008093000340E06CE08AEF92E00E94BE04EB
:101430008AEF92E00E94060582E08093010340E07B
:1014400066E08AEF92E00E94BE0440E062E08AEF2C
:1014500092E00E94BE048BE39FE10197F1F788E0E0
:101460008093050360E08AEF92E00E94BA0361E096
:1014700082E00E9437010E944F068BE00E94E0004C
:101480009C0191E02130310509F090E021303105D7
:1014900039F480914102811103C081E080934B02B5
:1014A000909341028CE00E94E0009C0191E0213089
:1014B000310509F090E02130310539F48091400286
:1014C000811103C0E1E0E0934A02909340028FB79C
:1014D000F8944090060350900703609008037090C2
:1014E00009038FBF8091120390911303A0911403FD
:1014F000B091150353014201881A990AAA0ABB0A3E
:10150000F5EF8F16F1E09F06A104B10408F44DC178
:101510001091490261E0612782E00E9409018091F7
:101520004B0211111AC0811103C080914A0281112E
:101530000E944F0610924B0210924A02F4EF8F1A4B
:10154000F1E09F0AA108B1084092120350921303E0
:101550006092140370921503D3CF882389F0809191
:101560004702909148028130910509F454C00CF073
:1015700045C0892B09F453C0D0924802C09247025B
:1015800080914A02882389F0809147029091480215
:101590008130910509F451C00CF045C0892B09F444
:1015A00053C03092480220924702809110039091DC
:1015B000110301970E948D0090934602809345028B
:1015C000809110038DA3082F0150002E000C110BE9
:1015D0001CA29CA191509CA37801E1E0EE1AF108B5
:1015E000892FFDA18F0F18169CF5C7010E948D0051
:1015F000BC01C8010E94A2008701EBCF8230910597
:1016000031F0039709F0B8CFD12CC12CB5CFCC2441
:10161000C394D12CB1CF53E0C52ED12CADCF42E035
:10162000C42ED12CA9CF8230910559F0039709F02F
:10163000B8CF22242394312CB4CF22E0222E312C97
:10164000B0CF312C212CADCF93E0292E312CA9CF56
:1016500080914702909148028130910509F447C07A
:10166000ACF5892BE1F190E080E00E948D001BA198
:10167000180F90E080E00E948D007AA1790F612F11
:1016800090E080E00E94A20090E080E00E948D0047
:10169000082FF92E87FD2EC0843164F583E0891769
:1016A00048F111E0812F012E000C990B20911003BD
:1016B000309111038217930708F084C00E948D00B7
:1016C000081302C0F916B1F01F5FECCF823091050C
:1016D00051F0039741F61AA2E1E0EBA3C4CF8FEFDC
:1016E0008AA31BA2C0CF1AA29FEF9BA3BCCFF1E09D
:1016F000FAA3F7CF1092490261E082E00E9409014B
:101700008AEF92E00E94060540E065E08AEF92E0F1
:101710000E94D5046EE571E08AEF92E00E94B9055F
:1017200041E066E08AEF92E00E94D50469E671E04C
:101730008AEF92E00E94B9052091420230E050E029
:1017400040E019A28E010F5D1F4FCA01B9012AE0C6
:1017500030E040E050E00E94FE0C605DF8016293D2
:101760008F01211531054105510579F7309729F091
:10177000BF018AEF92E00E94B90543E062E08AEF80
:1017800092E00E94D50461E771E08AEF92E00E9446
:10179000B905D0CE40914402609143028AEF92E0B5
:1017A0000E94D50463E871E0F0CF80E090E0892BDF
:1017B00009F463CE0E942B02882309F45ECE0E94B6
:1017C00000005BCE90E080E00E948D0020914302FB
:1017D000281311C08091440289130DC080914202E8
:1017E0008F5F8093420280914502909146020E9451
:1017F00015050E942E068AEF92E00E9406050091D0
:101800000A0310910B03E0901003F0901103EE0C0B
:10181000FF1CE00EF11E0E151F0509F4BBCFF801E9
:10182000418160818AEF92E00E94D50461E871E015
:101830008AEF92E00E94B9050E5F1F4FECCF8091B6
:101840000A0390910B03009711F00C94960F0895E2
:101850008F929F92AF92BF92CF92DF92EF92FF92C0
:10186000CF93DF93EC01688179818A819B81611537
:1018700071058105910521F464E279ED8BE597E02E
:101880002DE133EF41E050E00E94CC0C49015A01B8
:101890009B01AC01A7EAB1E40E94EB0C6B017C0157
:1018A000ACEEB4EFA50194010E94F90CC60ED71E50
:1018B000E81EF91EF7FE06C081E0C81AD108E1084B
:1018C00080E8F80AC882D982EA82FB82C701B601A1
:1018D0009F77DF91CF91FF90EF90DF90CF90BF90F7
:1018E000AF909F908F9008958F929F92AF92BF92EA
:1018F000CF92DF92EF92FF9260910001709101010F
:101900008091020190910301611571058105910596
:1019100021F464E279ED8BE597E02DE133EF41E0CE
:1019200050E00E94CC0C49015A019B01AC01A7EA8E
:10193000B1E40E94EB0C6B017C01ACEEB4EFA501AD
:1019400094010E94F90CC60ED71EE81EF91EF7FE80
:1019500006C081E0C81AD108E10880E8F80AC09200
:101960000001D0920101E0920201F0920301C7014F
:10197000B6019F77FF90EF90DF90CF90BF90AF9030
:101980009F908F9008956093000170930101809360
:101990000201909303010895052E97FB1EF4009415
:1019A0000E94E30C57FD07D00E94FE0C07FC03D0F9
:1019B0004EF40C94E30C50954095309521953F4F93
:1019C0004F4F5F4F089590958095709561957F4F2B
:1019D0008F4F9F4F08950E94200DA59F900DB49F9B
:1019E000900DA49F800D911D11240895B7FF0C94B4
:1019F000EB0C0E94EB0C821B930B0895A1E21A2EB4
:101A0000AA1BBB1BFD010DC0AA1FBB1FEE1FFF1FA2
:101A1000A217B307E407F50720F0A21BB30BE40BF2
:101A2000F50B661F771F881F991F1A9469F7609539
:101A30007095809590959B01AC01BD01CF010895F3
:101A4000A29FB001B39FC001A39F700D811D1124FF
:101A5000911DB29F700D811D1124911D08950E944A
:101A6000430D0C94240E0E941D0E58F00E94160E79
:101A700040F029F45F3F29F00C940D0E51110C94A5
:101A8000580E0C94130E0E94350E68F39923B1F38F
:101A9000552391F3951B550BBB27AA276217730794
:101AA000840738F09F5F5F4F220F331F441FAA1F28
:101AB000A9F335D00E2E3AF0E0E832D091505040E4
:101AC000E695001CCAF72BD0FE2F29D0660F771F92
:101AD000881FBB1F261737074807AB07B0E809F078
:101AE000BB0B802DBF01FF2793585F4F3AF09E3FFD
:101AF000510578F00C940D0E0C94580E5F3FE4F3F2
:101B0000983ED4F3869577956795B795F7959F5F3F
:101B1000C9F7880F911D9695879597F90895E1E08B
:101B2000660F771F881FBB1F621773078407BA07EA
:101B300020F0621B730B840BBA0BEE1F88F7E09545
:101B400008950E943D0E88F09F5798F0B92F99276D
:101B5000B751B0F0E1F0660F771F881F991F1AF098
:101B6000BA95C9F714C0B13091F00E94570EB1E098
:101B700008950C94570E672F782F8827B85F39F097
:101B8000B93FCCF3869577956795B395D9F73EF431
:101B900090958095709561957F4F8F4F9F4F0895D9
:101BA000E89409C097FB3EF49095809570956195F7
:101BB0007F4F8F4F9F4F9923A9F0F92F96E9BB27AD
:101BC0009395F695879577956795B795F111F8CF29
:101BD000FAF4BB0F11F460FF1BC06F5F7F4F8F4F94
:101BE0009F4F16C0882311F096E911C0772321F08A
:101BF0009EE8872F762F05C0662371F096E8862F22
:101C000070E060E02AF09A95660F771F881FDAF778
:101C1000880F9695879597F9089597F99F6780E8BB
:101C200070E060E008959FEF80EC089500240A942E
:101C30001616170618060906089500240A941216A7
:101C40001306140605060895092E0394000C11F4DA
:101C5000882352F0BB0F40F4BF2B11F460FF04C087
:101C60006F5F7F4F8F4F9F4F089557FD9058440FE0
:101C7000551F59F05F3F71F04795880F97FB991FEB
:101C800061F09F3F79F087950895121613061406A8
:101C9000551FF2CF4695F1DF08C016161706180635
:101CA000991FF1CF86957105610508940895E89410
:101CB000BB2766277727CB0197F908950E94D00E9E
:101CC00008F48FEF08950E94760E0C94240E0E9463
:101CD000160E38F00E941D0E20F0952311F00C9482
:101CE0000D0E0C94130E11240C94580E0E94350EF8
:101CF00070F3959FC1F3950F50E0551F629FF0015F
:101D0000729FBB27F00DB11D639FAA27F00DB11D77
:101D1000AA1F649F6627B00DA11D661F829F222700
:101D2000B00DA11D621F739FB00DA11D621F839F87
:101D3000A00D611D221F749F3327A00D611D231F5D
:101D4000849F600D211D822F762F6A2F11249F57AB
:101D500050409AF0F1F088234AF0EE0FFF1FBB1FAE
:101D6000661F771F881F91505040A9F79E3F51056D
:101D700080F00C940D0E0C94580E5F3FE4F3983EE7
:101D8000D4F3869577956795B795F795E7959F5F17
:101D9000C1F7FE2B880F911D9695879597F90895A9
:101DA000990F0008550FAA0BE0E8FEEF161617066C
:101DB000E807F907C0F012161306E407F50798F0D4
:101DC000621B730B840B950B39F40A2661F0232BED
:101DD000242B252B21F408950A2609F4A140A69569
:101DE0008FEF811D811D0895EE0FFF1F0590F49167
:101DF000E02D09940F931F93CF93DF9382309105C9
:101E000010F482E090E0E0911803F091190330E0C3
:101E100020E0B0E0A0E0309799F42115310509F4F5
:101E20004AC0281B390B24303105D8F58A819B81A3
:101E30006115710589F1FB0193838283FE0111C055
:101E4000408151810281138148175907E0F04817FA
:101E5000590799F4109761F012960C931297139604
:101E60001C933296CF01DF91CF911F910F9108956E
:101E70000093180310931903F4CF2115310551F085
:101E80004217530738F0A901DB019A01BD01DF01B8
:101E9000F801C1CFEF01F9CF909319038093180394
:101EA000CDCFFE01E20FF31F8193919322503109B0
:101EB00039832883D7CF2091160330911703232B22
:101EC00041F42091060130910701309317032093CC
:101ED000160320910401309105012115310541F4CB
:101EE0002DB73EB74091080150910901241B350BD5
:101EF000E0911603F0911703E217F307A0F42E1BED
:101F00003F0B2817390778F0AC014E5F5F4F24175D
:101F1000350748F04E0F5F1F509317034093160389
:101F2000819391939FCFF0E0E0E09CCFCF93DF933C
:101F30000097E9F0FC01329713821282A0911803F6
:101F4000B0911903ED0130E020E01097A1F4208159
:101F50003181820F931F20911603309117032817A8
:101F6000390709F061C0F0931703E0931603DF917E
:101F7000CF910895EA01CE17DF07E8F54A815B812A
:101F80009E0141155105B1F7E901FB83EA834991AF
:101F90005991C40FD51FEC17FD0761F48081918121
:101FA0000296840F951FE90199838883828193812A
:101FB0009B838A83F0E0E0E012968D919C911397C9
:101FC0000097B9F52D913C911197CD010296820FA2
:101FD000931F20911603309117032817390739F6FC
:101FE000309751F51092190310921803B09317030C
:101FF000A0931603BCCFD383C28340815181840F49
:10200000951FC817D90761F44E5F5F4F888199818A
:10201000480F591F518340838A819B819383828318
:102020002115310509F0B0CFF0931903E09318039F
:102030009ECFFD01DC01C0CF13821282D7CFFB01FE
:10204000DC0102C001900D9241505040D8F7089534
:1020500010E0C2E6D0E004C0FE010E94F40E21961A
:0A206000C336D107C9F7F894FFCF8B
:10206A000100000000001A03800000004000140074
:10207A005400000000006102C101EE01AE021F021D
:10208A00FD011102000000008B035E03A204340369
:10209A00570344033503000000000F05C101A204E1
:1020AA00A10453657269616C20626567696E207369
:1020BA0075636365737366756C21000D0A005A6F48
:1020CA006D72656C2073692100536B6F72653A20DB
:1020DA000053746C61632070726520726573657455
:0620EA000023004F00007E
:00000001FF
